{
  "contractName": "btc2eth",
  "abi": [
    {
      "inputs": [
        {
          "internalType": "contract IGatewayRegistry",
          "name": "_registry",
          "type": "address"
        }
      ],
      "stateMutability": "nonpayable",
      "type": "constructor"
    },
    {
      "anonymous": false,
      "inputs": [
        {
          "indexed": false,
          "internalType": "uint256",
          "name": "_amount",
          "type": "uint256"
        },
        {
          "indexed": false,
          "internalType": "bytes",
          "name": "_msg",
          "type": "bytes"
        }
      ],
      "name": "Deposit",
      "type": "event"
    },
    {
      "inputs": [],
      "name": "registry",
      "outputs": [
        {
          "internalType": "contract IGatewayRegistry",
          "name": "",
          "type": "address"
        }
      ],
      "stateMutability": "view",
      "type": "function"
    },
    {
      "inputs": [
        {
          "internalType": "bytes",
          "name": "_msg",
          "type": "bytes"
        },
        {
          "internalType": "uint256",
          "name": "_amount",
          "type": "uint256"
        },
        {
          "internalType": "bytes32",
          "name": "_nHash",
          "type": "bytes32"
        },
        {
          "internalType": "bytes",
          "name": "_sig",
          "type": "bytes"
        }
      ],
      "name": "deposit",
      "outputs": [],
      "stateMutability": "nonpayable",
      "type": "function"
    },
    {
      "inputs": [],
      "name": "balance",
      "outputs": [
        {
          "internalType": "uint256",
          "name": "",
          "type": "uint256"
        }
      ],
      "stateMutability": "view",
      "type": "function"
    }
  ],
  "bytecode": "0x608060405234801561001057600080fd5b50604051610a30380380610a30833981810160405281019061003291906100ed565b806000806101000a81548173ffffffffffffffffffffffffffffffffffffffff021916908373ffffffffffffffffffffffffffffffffffffffff1602179055505061011a565b600080fd5b600073ffffffffffffffffffffffffffffffffffffffff82169050919050565b60006100a88261007d565b9050919050565b60006100ba8261009d565b9050919050565b6100ca816100af565b81146100d557600080fd5b50565b6000815190506100e7816100c1565b92915050565b60006020828403121561010357610102610078565b5b6000610111848285016100d8565b91505092915050565b610907806101296000396000f3fe608060405234801561001057600080fd5b50600436106100415760003560e01c80632012aca7146100465780637b10399914610062578063b69ef8a814610080575b600080fd5b610060600480360381019061005b9190610484565b61009e565b005b61006a61024e565b60405161007791906105aa565b60405180910390f35b610088610272565b60405161009591906105d4565b60405180910390f35b600086866040516020016100b392919061064d565b60405160208183030381529060405280519060200120905060008060009054906101000a900473ffffffffffffffffffffffffffffffffffffffff1673ffffffffffffffffffffffffffffffffffffffff166364936b1e6040518163ffffffff1660e01b8152600401610125906106ce565b60206040518083038186803b15801561013d57600080fd5b505afa158015610151573d6000803e3d6000fd5b505050506040513d601f19601f82011682018060405250810190610175919061073e565b73ffffffffffffffffffffffffffffffffffffffff1663159ab14d83888888886040518663ffffffff1660e01b81526004016101b595949392919061077a565b602060405180830381600087803b1580156101cf57600080fd5b505af11580156101e3573d6000803e3d6000fd5b505050506040513d601f19601f8201168201806040525081019061020791906107dd565b90507f39ad770f9ce7344fadb857c83f6206aa00bf105d7ff26b65d54cdadad280be8e81898960405161023c9392919061080a565b60405180910390a15050505050505050565b60008054906101000a900473ffffffffffffffffffffffffffffffffffffffff1681565b60008060009054906101000a900473ffffffffffffffffffffffffffffffffffffffff1673ffffffffffffffffffffffffffffffffffffffff1663efa74f1f6040518163ffffffff1660e01b81526004016102cc906106ce565b60206040518083038186803b1580156102e457600080fd5b505afa1580156102f8573d6000803e3d6000fd5b505050506040513d601f19601f8201168201806040525081019061031c919061087a565b73ffffffffffffffffffffffffffffffffffffffff166370a08231306040518263ffffffff1660e01b815260040161035491906108b6565b60206040518083038186803b15801561036c57600080fd5b505afa158015610380573d6000803e3d6000fd5b505050506040513d601f19601f820116820180604052508101906103a491906107dd565b905090565b600080fd5b600080fd5b600080fd5b600080fd5b600080fd5b60008083601f8401126103d8576103d76103b3565b5b8235905067ffffffffffffffff8111156103f5576103f46103b8565b5b602083019150836001820283011115610411576104106103bd565b5b9250929050565b6000819050919050565b61042b81610418565b811461043657600080fd5b50565b60008135905061044881610422565b92915050565b6000819050919050565b6104618161044e565b811461046c57600080fd5b50565b60008135905061047e81610458565b92915050565b600080600080600080608087890312156104a1576104a06103a9565b5b600087013567ffffffffffffffff8111156104bf576104be6103ae565b5b6104cb89828a016103c2565b965096505060206104de89828a01610439565b94505060406104ef89828a0161046f565b935050606087013567ffffffffffffffff8111156105105761050f6103ae565b5b61051c89828a016103c2565b92509250509295509295509295565b600073ffffffffffffffffffffffffffffffffffffffff82169050919050565b6000819050919050565b600061057061056b6105668461052b565b61054b565b61052b565b9050919050565b600061058282610555565b9050919050565b600061059482610577565b9050919050565b6105a481610589565b82525050565b60006020820190506105bf600083018461059b565b92915050565b6105ce81610418565b82525050565b60006020820190506105e960008301846105c5565b92915050565b600082825260208201905092915050565b82818337600083830152505050565b6000601f19601f8301169050919050565b600061062c83856105ef565b9350610639838584610600565b6106428361060f565b840190509392505050565b60006020820190508181036000830152610668818486610620565b90509392505050565b600082825260208201905092915050565b7f4254430000000000000000000000000000000000000000000000000000000000600082015250565b60006106b8600383610671565b91506106c382610682565b602082019050919050565b600060208201905081810360008301526106e7816106ab565b9050919050565b60006106f98261052b565b9050919050565b600061070b826106ee565b9050919050565b61071b81610700565b811461072657600080fd5b50565b60008151905061073881610712565b92915050565b600060208284031215610754576107536103a9565b5b600061076284828501610729565b91505092915050565b6107748161044e565b82525050565b600060808201905061078f600083018861076b565b61079c60208301876105c5565b6107a9604083018661076b565b81810360608301526107bc818486610620565b90509695505050505050565b6000815190506107d781610422565b92915050565b6000602082840312156107f3576107f26103a9565b5b6000610801848285016107c8565b91505092915050565b600060408201905061081f60008301866105c5565b8181036020830152610832818486610620565b9050949350505050565b6000610847826106ee565b9050919050565b6108578161083c565b811461086257600080fd5b50565b6000815190506108748161084e565b92915050565b6000602082840312156108905761088f6103a9565b5b600061089e84828501610865565b91505092915050565b6108b0816106ee565b82525050565b60006020820190506108cb60008301846108a7565b9291505056fea26469706673582212202cbe26b1ab3b1e1e07924dfd7ef540106d53f0561dcd440506e38cd5d58d442264736f6c63430008090033",
  "immutableReferences": {},
  "source": "// SPDX-License-Identifier: MIT\npragma solidity >=0.4.22 <0.9.0;\n\ninterface IERC20 {\n    function balanceOf(address account) external view returns (uint256);\n}\n\n\ninterface IGateway {\n    function mint(bytes32 _pHash, uint256 _amount, bytes32 _nHash, bytes calldata _sig) external returns (uint256);\n    function burn(bytes calldata _to, uint256 _amount) external returns (uint256);\n}\n\ninterface IGatewayRegistry {\n    function getGatewayBySymbol(string calldata _tokenSymbol) external view returns (IGateway);\n    function getTokenBySymbol(string calldata _tokenSymbol) external view returns (IERC20);\n}\n\ncontract btc2eth {\n  IGatewayRegistry public registry;\n\n    event Deposit(uint256 _amount, bytes _msg);\n\n    constructor(IGatewayRegistry _registry) public {\n        registry = _registry;\n    }\n\n    function deposit(\n        // Parameters from users\n        bytes calldata _msg,\n        // Parameters from RenVM\n        uint256        _amount,\n        bytes32        _nHash,\n        bytes calldata _sig\n    ) external {\n        bytes32 pHash = keccak256(abi.encode(_msg));\n        uint256 mintedAmount = registry.getGatewayBySymbol(\"BTC\").mint(pHash, _amount, _nHash, _sig);\n        emit Deposit(mintedAmount, _msg);\n    }\n\n    function balance() public view returns (uint256) {\n        return registry.getTokenBySymbol(\"BTC\").balanceOf(address(this));\n    }\n}\n",
  "sourcePath": "/home/anima/Documents/code/web31/contracts/btc2eth.sol",
  "compiler": {
    "name": "solc",
    "version": "0.8.9+commit.e5eed63a.Emscripten.clang"
  },
  "schemaVersion": "3.4.3",
  "updatedAt": "2021-10-31T14:10:24.555Z",
  "devdoc": {
    "kind": "dev",
    "methods": {},
    "version": 1
  },
  "userdoc": {
    "kind": "user",
    "methods": {},
    "version": 1
  }
}